{
  "_format": "hh-sol-artifact-1",
  "contractName": "Lottery",
  "sourceName": "contracts/Lottery.sol",
  "abi": [
    {
      "inputs": [
        {
          "internalType": "address",
          "name": "_vrfCoodinatorV2",
          "type": "address"
        },
        {
          "internalType": "uint256",
          "name": "_entranceFee",
          "type": "uint256"
        },
        {
          "internalType": "bytes32",
          "name": "_gasLane",
          "type": "bytes32"
        },
        {
          "internalType": "uint64",
          "name": "_subsriptionId",
          "type": "uint64"
        },
        {
          "internalType": "uint32",
          "name": "_callbackGasLimit",
          "type": "uint32"
        },
        {
          "internalType": "uint256",
          "name": "_interval",
          "type": "uint256"
        }
      ],
      "stateMutability": "nonpayable",
      "type": "constructor"
    },
    {
      "inputs": [],
      "name": "Lottery_TransferFailed",
      "type": "error"
    },
    {
      "inputs": [],
      "name": "Lottery__NotEnoughEthEntered",
      "type": "error"
    },
    {
      "inputs": [],
      "name": "Lottery__NotOpen",
      "type": "error"
    },
    {
      "inputs": [
        {
          "internalType": "uint256",
          "name": "currentBalance",
          "type": "uint256"
        },
        {
          "internalType": "uint256",
          "name": "numPlayers",
          "type": "uint256"
        },
        {
          "internalType": "uint256",
          "name": "lotteryState",
          "type": "uint256"
        }
      ],
      "name": "Lottery__UpkeepNotNeeded",
      "type": "error"
    },
    {
      "inputs": [
        {
          "internalType": "address",
          "name": "have",
          "type": "address"
        },
        {
          "internalType": "address",
          "name": "want",
          "type": "address"
        }
      ],
      "name": "OnlyCoordinatorCanFulfill",
      "type": "error"
    },
    {
      "anonymous": false,
      "inputs": [
        {
          "indexed": true,
          "internalType": "address",
          "name": "players",
          "type": "address"
        }
      ],
      "name": "LotteryEnter",
      "type": "event"
    },
    {
      "anonymous": false,
      "inputs": [
        {
          "indexed": true,
          "internalType": "uint256",
          "name": "requestId",
          "type": "uint256"
        }
      ],
      "name": "RequestedLotteryWinner",
      "type": "event"
    },
    {
      "anonymous": false,
      "inputs": [
        {
          "indexed": true,
          "internalType": "address",
          "name": "winner",
          "type": "address"
        }
      ],
      "name": "WinnerPicked",
      "type": "event"
    },
    {
      "inputs": [
        {
          "internalType": "bytes",
          "name": "",
          "type": "bytes"
        }
      ],
      "name": "checkUpkeep",
      "outputs": [
        {
          "internalType": "bool",
          "name": "upkeepNeeded",
          "type": "bool"
        },
        {
          "internalType": "bytes",
          "name": "",
          "type": "bytes"
        }
      ],
      "stateMutability": "view",
      "type": "function"
    },
    {
      "inputs": [],
      "name": "enterLottery",
      "outputs": [],
      "stateMutability": "payable",
      "type": "function"
    },
    {
      "inputs": [],
      "name": "getEntranceFee",
      "outputs": [
        {
          "internalType": "uint256",
          "name": "",
          "type": "uint256"
        }
      ],
      "stateMutability": "view",
      "type": "function"
    },
    {
      "inputs": [],
      "name": "getInterval",
      "outputs": [
        {
          "internalType": "uint256",
          "name": "",
          "type": "uint256"
        }
      ],
      "stateMutability": "view",
      "type": "function"
    },
    {
      "inputs": [],
      "name": "getLatestTimeStamp",
      "outputs": [
        {
          "internalType": "uint256",
          "name": "",
          "type": "uint256"
        }
      ],
      "stateMutability": "view",
      "type": "function"
    },
    {
      "inputs": [],
      "name": "getLotteryState",
      "outputs": [
        {
          "internalType": "enum Lottery.LotteryState",
          "name": "",
          "type": "uint8"
        }
      ],
      "stateMutability": "view",
      "type": "function"
    },
    {
      "inputs": [],
      "name": "getNumWords",
      "outputs": [
        {
          "internalType": "uint256",
          "name": "",
          "type": "uint256"
        }
      ],
      "stateMutability": "pure",
      "type": "function"
    },
    {
      "inputs": [],
      "name": "getNumberOfPlayers",
      "outputs": [
        {
          "internalType": "uint256",
          "name": "",
          "type": "uint256"
        }
      ],
      "stateMutability": "view",
      "type": "function"
    },
    {
      "inputs": [
        {
          "internalType": "uint256",
          "name": "_index",
          "type": "uint256"
        }
      ],
      "name": "getPlayer",
      "outputs": [
        {
          "internalType": "address",
          "name": "",
          "type": "address"
        }
      ],
      "stateMutability": "view",
      "type": "function"
    },
    {
      "inputs": [],
      "name": "getRecentWinner",
      "outputs": [
        {
          "internalType": "address",
          "name": "",
          "type": "address"
        }
      ],
      "stateMutability": "view",
      "type": "function"
    },
    {
      "inputs": [],
      "name": "getRequestConfirmations",
      "outputs": [
        {
          "internalType": "uint256",
          "name": "",
          "type": "uint256"
        }
      ],
      "stateMutability": "pure",
      "type": "function"
    },
    {
      "inputs": [
        {
          "internalType": "bytes",
          "name": "",
          "type": "bytes"
        }
      ],
      "name": "performUpkeep",
      "outputs": [],
      "stateMutability": "nonpayable",
      "type": "function"
    },
    {
      "inputs": [
        {
          "internalType": "uint256",
          "name": "requestId",
          "type": "uint256"
        },
        {
          "internalType": "uint256[]",
          "name": "randomWords",
          "type": "uint256[]"
        }
      ],
      "name": "rawFulfillRandomWords",
      "outputs": [],
      "stateMutability": "nonpayable",
      "type": "function"
    }
  ],
  "bytecode": "0x6101606040523480156200001257600080fd5b5060405162001833380380620018338339818101604052810190620000389190620002a0565b858073ffffffffffffffffffffffffffffffffffffffff1660808173ffffffffffffffffffffffffffffffffffffffff1660601b81525050508460a081815250508573ffffffffffffffffffffffffffffffffffffffff1660c08173ffffffffffffffffffffffffffffffffffffffff1660601b815250508360e081815250508267ffffffffffffffff166101008167ffffffffffffffff1660c01b815250508163ffffffff166101208163ffffffff1660e01b815250506000600260146101000a81548160ff021916908360018111156200011957620001186200033c565b5b0217905550426001819055508061014081815250505050505050506200036b565b600080fd5b600073ffffffffffffffffffffffffffffffffffffffff82169050919050565b60006200016c826200013f565b9050919050565b6200017e816200015f565b81146200018a57600080fd5b50565b6000815190506200019e8162000173565b92915050565b6000819050919050565b620001b981620001a4565b8114620001c557600080fd5b50565b600081519050620001d981620001ae565b92915050565b6000819050919050565b620001f481620001df565b81146200020057600080fd5b50565b6000815190506200021481620001e9565b92915050565b600067ffffffffffffffff82169050919050565b62000239816200021a565b81146200024557600080fd5b50565b60008151905062000259816200022e565b92915050565b600063ffffffff82169050919050565b6200027a816200025f565b81146200028657600080fd5b50565b6000815190506200029a816200026f565b92915050565b60008060008060008060c08789031215620002c057620002bf6200013a565b5b6000620002d089828a016200018d565b9650506020620002e389828a01620001c8565b9550506040620002f689828a0162000203565b94505060606200030989828a0162000248565b93505060806200031c89828a0162000289565b92505060a06200032f89828a01620001c8565b9150509295509295509295565b7f4e487b7100000000000000000000000000000000000000000000000000000000600052602160045260246000fd5b60805160601c60a05160c05160601c60e0516101005160c01c6101205160e01c6101405161144c620003e76000396000818161068801526106f601526000610520015260006104fd015260006104dc015260006104a00152600081816102fa015261071c0152600081816103200152610374015261144c6000f3fe6080604052600436106100c25760003560e01c80635f1b0fd81161007f57806391ad27b41161005957806391ad27b414610259578063c1af578514610284578063e55ae4e81461028e578063fd6673f5146102cb576100c2565b80635f1b0fd8146101c55780636b68c03c146101f05780636e04ff0d1461021b576100c2565b806309bc33a7146100c75780631fe543e3146100f2578063320229eb1461011b5780634585e33b14610146578063473f1ddc1461016f57806353a2c19a1461019a575b600080fd5b3480156100d357600080fd5b506100dc6102f6565b6040516100e99190610bcd565b60405180910390f35b3480156100fe57600080fd5b5061011960048036038101906101149190610d81565b61031e565b005b34801561012757600080fd5b506101306103de565b60405161013d9190610bcd565b60405180910390f35b34801561015257600080fd5b5061016d60048036038101906101689190610e38565b6103e8565b005b34801561017b57600080fd5b506101846105e8565b6040516101919190610ec6565b60405180910390f35b3480156101a657600080fd5b506101af610612565b6040516101bc9190610bcd565b60405180910390f35b3480156101d157600080fd5b506101da610621565b6040516101e79190610bcd565b60405180910390f35b3480156101fc57600080fd5b5061020561062e565b6040516102129190610f58565b60405180910390f35b34801561022757600080fd5b50610242600480360381019061023d9190611028565b610645565b604051610250929190611114565b60405180910390f35b34801561026557600080fd5b5061026e6106f2565b60405161027b9190610bcd565b60405180910390f35b61028c61071a565b005b34801561029a57600080fd5b506102b560048036038101906102b09190611144565b610889565b6040516102c29190610ec6565b60405180910390f35b3480156102d757600080fd5b506102e06108d0565b6040516102ed9190610bcd565b60405180910390f35b60007f0000000000000000000000000000000000000000000000000000000000000000905090565b7f000000000000000000000000000000000000000000000000000000000000000073ffffffffffffffffffffffffffffffffffffffff163373ffffffffffffffffffffffffffffffffffffffff16146103d057337f00000000000000000000000000000000000000000000000000000000000000006040517f1cf993f40000000000000000000000000000000000000000000000000000000081526004016103c7929190611171565b60405180910390fd5b6103da82826108dc565b5050565b6000600154905090565b600061040260405180602001604052806000815250610645565b509050806104715747600080549050600260149054906101000a900460ff16600181111561043357610432610ee1565b5b6040517f6e195f250000000000000000000000000000000000000000000000000000000081526004016104689392919061119a565b60405180910390fd5b6001600260146101000a81548160ff0219169083600181111561049757610496610ee1565b5b021790555060007f000000000000000000000000000000000000000000000000000000000000000073ffffffffffffffffffffffffffffffffffffffff16635d3b1d307f00000000000000000000000000000000000000000000000000000000000000007f000000000000000000000000000000000000000000000000000000000000000060037f000000000000000000000000000000000000000000000000000000000000000060016040518663ffffffff1660e01b8152600401610561959493929190611249565b602060405180830381600087803b15801561057b57600080fd5b505af115801561058f573d6000803e3d6000fd5b505050506040513d601f19601f820116820180604052508101906105b391906112b1565b9050807febf56642252004c18a776f30d528e7a0ce8c5db14b6596fb6550f630c8a24c6c60405160405180910390a250505050565b6000600260009054906101000a900473ffffffffffffffffffffffffffffffffffffffff16905090565b6000600163ffffffff16905090565b6000600361ffff16905090565b6000600260149054906101000a900460ff16905090565b600060606000600260149054906101000a900460ff16600181111561066d5761066c610ee1565b5b6000600181111561068157610680610ee1565b5b14905060007f0000000000000000000000000000000000000000000000000000000000000000600154426106b5919061130d565b119050600080600080549050119050600080471190508380156106d55750825b80156106de5750815b80156106e75750805b955050505050915091565b60007f0000000000000000000000000000000000000000000000000000000000000000905090565b7f0000000000000000000000000000000000000000000000000000000000000000341015610774576040517f3e8f808800000000000000000000000000000000000000000000000000000000815260040160405180910390fd5b6000600181111561078857610787610ee1565b5b600260149054906101000a900460ff1660018111156107aa576107a9610ee1565b5b146107e1576040517fe76be6fc00000000000000000000000000000000000000000000000000000000815260040160405180910390fd5b6000339080600181540180825580915050600190039060005260206000200160009091909190916101000a81548173ffffffffffffffffffffffffffffffffffffffff021916908373ffffffffffffffffffffffffffffffffffffffff1602179055503373ffffffffffffffffffffffffffffffffffffffff167f1d64fb5ba9f2548c5b98468d58f25b87b9e866afee0122e92d9fe722bf85076c60405160405180910390a2565b600080828154811061089e5761089d611341565b5b9060005260206000200160009054906101000a900473ffffffffffffffffffffffffffffffffffffffff169050919050565b60008080549050905090565b60008080549050826000815181106108f7576108f6611341565b5b6020026020010151610909919061139f565b905060008082815481106109205761091f611341565b5b9060005260206000200160009054906101000a900473ffffffffffffffffffffffffffffffffffffffff16905080600260006101000a81548173ffffffffffffffffffffffffffffffffffffffff021916908373ffffffffffffffffffffffffffffffffffffffff1602179055506000600260146101000a81548160ff021916908360018111156109b4576109b3610ee1565b5b0217905550600067ffffffffffffffff8111156109d4576109d3610c3e565b5b604051908082528060200260200182016040528015610a025781602001602082028036833780820191505090505b5060009080519060200190610a18929190610b0d565b504260018190555060008173ffffffffffffffffffffffffffffffffffffffff1647604051610a4690611401565b60006040518083038185875af1925050503d8060008114610a83576040519150601f19603f3d011682016040523d82523d6000602084013e610a88565b606091505b5050905080610ac3576040517faca80e4300000000000000000000000000000000000000000000000000000000815260040160405180910390fd5b8173ffffffffffffffffffffffffffffffffffffffff167f5b690ec4a06fe979403046eaeea5b3ce38524683c3001f662c8b5a829632f7df60405160405180910390a25050505050565b828054828255906000526020600020908101928215610b86579160200282015b82811115610b855782518260006101000a81548173ffffffffffffffffffffffffffffffffffffffff021916908373ffffffffffffffffffffffffffffffffffffffff16021790555091602001919060010190610b2d565b5b509050610b939190610b97565b5090565b5b80821115610bb0576000816000905550600101610b98565b5090565b6000819050919050565b610bc781610bb4565b82525050565b6000602082019050610be26000830184610bbe565b92915050565b6000604051905090565b600080fd5b600080fd5b610c0581610bb4565b8114610c1057600080fd5b50565b600081359050610c2281610bfc565b92915050565b600080fd5b6000601f19601f8301169050919050565b7f4e487b7100000000000000000000000000000000000000000000000000000000600052604160045260246000fd5b610c7682610c2d565b810181811067ffffffffffffffff82111715610c9557610c94610c3e565b5b80604052505050565b6000610ca8610be8565b9050610cb48282610c6d565b919050565b600067ffffffffffffffff821115610cd457610cd3610c3e565b5b602082029050602081019050919050565b600080fd5b6000610cfd610cf884610cb9565b610c9e565b90508083825260208201905060208402830185811115610d2057610d1f610ce5565b5b835b81811015610d495780610d358882610c13565b845260208401935050602081019050610d22565b5050509392505050565b600082601f830112610d6857610d67610c28565b5b8135610d78848260208601610cea565b91505092915050565b60008060408385031215610d9857610d97610bf2565b5b6000610da685828601610c13565b925050602083013567ffffffffffffffff811115610dc757610dc6610bf7565b5b610dd385828601610d53565b9150509250929050565b600080fd5b60008083601f840112610df857610df7610c28565b5b8235905067ffffffffffffffff811115610e1557610e14610ddd565b5b602083019150836001820283011115610e3157610e30610ce5565b5b9250929050565b60008060208385031215610e4f57610e4e610bf2565b5b600083013567ffffffffffffffff811115610e6d57610e6c610bf7565b5b610e7985828601610de2565b92509250509250929050565b600073ffffffffffffffffffffffffffffffffffffffff82169050919050565b6000610eb082610e85565b9050919050565b610ec081610ea5565b82525050565b6000602082019050610edb6000830184610eb7565b92915050565b7f4e487b7100000000000000000000000000000000000000000000000000000000600052602160045260246000fd5b60028110610f2157610f20610ee1565b5b50565b6000819050610f3282610f10565b919050565b6000610f4282610f24565b9050919050565b610f5281610f37565b82525050565b6000602082019050610f6d6000830184610f49565b92915050565b600080fd5b600067ffffffffffffffff821115610f9357610f92610c3e565b5b610f9c82610c2d565b9050602081019050919050565b82818337600083830152505050565b6000610fcb610fc684610f78565b610c9e565b905082815260208101848484011115610fe757610fe6610f73565b5b610ff2848285610fa9565b509392505050565b600082601f83011261100f5761100e610c28565b5b813561101f848260208601610fb8565b91505092915050565b60006020828403121561103e5761103d610bf2565b5b600082013567ffffffffffffffff81111561105c5761105b610bf7565b5b61106884828501610ffa565b91505092915050565b60008115159050919050565b61108681611071565b82525050565b600081519050919050565b600082825260208201905092915050565b60005b838110156110c65780820151818401526020810190506110ab565b838111156110d5576000848401525b50505050565b60006110e68261108c565b6110f08185611097565b93506111008185602086016110a8565b61110981610c2d565b840191505092915050565b6000604082019050611129600083018561107d565b818103602083015261113b81846110db565b90509392505050565b60006020828403121561115a57611159610bf2565b5b600061116884828501610c13565b91505092915050565b60006040820190506111866000830185610eb7565b6111936020830184610eb7565b9392505050565b60006060820190506111af6000830186610bbe565b6111bc6020830185610bbe565b6111c96040830184610bbe565b949350505050565b6000819050919050565b6111e4816111d1565b82525050565b600067ffffffffffffffff82169050919050565b611207816111ea565b82525050565b600061ffff82169050919050565b6112248161120d565b82525050565b600063ffffffff82169050919050565b6112438161122a565b82525050565b600060a08201905061125e60008301886111db565b61126b60208301876111fe565b611278604083018661121b565b611285606083018561123a565b611292608083018461123a565b9695505050505050565b6000815190506112ab81610bfc565b92915050565b6000602082840312156112c7576112c6610bf2565b5b60006112d58482850161129c565b91505092915050565b7f4e487b7100000000000000000000000000000000000000000000000000000000600052601160045260246000fd5b600061131882610bb4565b915061132383610bb4565b925082821015611336576113356112de565b5b828203905092915050565b7f4e487b7100000000000000000000000000000000000000000000000000000000600052603260045260246000fd5b7f4e487b7100000000000000000000000000000000000000000000000000000000600052601260045260246000fd5b60006113aa82610bb4565b91506113b583610bb4565b9250826113c5576113c4611370565b5b828206905092915050565b600081905092915050565b50565b60006113eb6000836113d0565b91506113f6826113db565b600082019050919050565b600061140c826113de565b915081905091905056fea2646970667358221220c8708dc7ef0bc32868a64f55dcbfd000a34a9213de01443f41885a8833a425eb64736f6c63430008080033",
  "linkReferences": {},
  "deployedLinkReferences": {}
}