{
  "_format": "hh-sol-artifact-1",
  "contractName": "Lottery",
  "sourceName": "contracts/Lottery.sol",
  "abi": [
    {
      "inputs": [
        {
          "internalType": "address",
          "name": "_vrfCoodinatorV2",
          "type": "address"
        },
        {
          "internalType": "uint256",
          "name": "_entranceFee",
          "type": "uint256"
        },
        {
          "internalType": "bytes32",
          "name": "_gasLane",
          "type": "bytes32"
        },
        {
          "internalType": "uint64",
          "name": "_subsriptionId",
          "type": "uint64"
        },
        {
          "internalType": "uint32",
          "name": "_callbackGasLimit",
          "type": "uint32"
        },
        {
          "internalType": "uint256",
          "name": "_interval",
          "type": "uint256"
        }
      ],
      "stateMutability": "nonpayable",
      "type": "constructor"
    },
    {
      "inputs": [],
      "name": "Lottery_TransferFailed",
      "type": "error"
    },
    {
      "inputs": [],
      "name": "Lottery__NotEnoughEthEntered",
      "type": "error"
    },
    {
      "inputs": [],
      "name": "Lottery__NotOpen",
      "type": "error"
    },
    {
      "inputs": [
        {
          "internalType": "uint256",
          "name": "currentBalance",
          "type": "uint256"
        },
        {
          "internalType": "uint256",
          "name": "numPlayers",
          "type": "uint256"
        },
        {
          "internalType": "uint256",
          "name": "lotteryState",
          "type": "uint256"
        }
      ],
      "name": "Lottery__UpkeepNotNeeded",
      "type": "error"
    },
    {
      "inputs": [
        {
          "internalType": "address",
          "name": "have",
          "type": "address"
        },
        {
          "internalType": "address",
          "name": "want",
          "type": "address"
        }
      ],
      "name": "OnlyCoordinatorCanFulfill",
      "type": "error"
    },
    {
      "anonymous": false,
      "inputs": [
        {
          "indexed": true,
          "internalType": "address",
          "name": "players",
          "type": "address"
        }
      ],
      "name": "LotteryEnter",
      "type": "event"
    },
    {
      "anonymous": false,
      "inputs": [
        {
          "indexed": true,
          "internalType": "uint256",
          "name": "requestId",
          "type": "uint256"
        }
      ],
      "name": "RequestedLotteryWinner",
      "type": "event"
    },
    {
      "anonymous": false,
      "inputs": [
        {
          "indexed": true,
          "internalType": "address",
          "name": "winner",
          "type": "address"
        }
      ],
      "name": "WinnerPicked",
      "type": "event"
    },
    {
      "inputs": [
        {
          "internalType": "bytes",
          "name": "",
          "type": "bytes"
        }
      ],
      "name": "checkUpkeep",
      "outputs": [
        {
          "internalType": "bool",
          "name": "upkeepNeeded",
          "type": "bool"
        },
        {
          "internalType": "bytes",
          "name": "",
          "type": "bytes"
        }
      ],
      "stateMutability": "view",
      "type": "function"
    },
    {
      "inputs": [],
      "name": "enterLottery",
      "outputs": [],
      "stateMutability": "payable",
      "type": "function"
    },
    {
      "inputs": [],
      "name": "getEntranceFee",
      "outputs": [
        {
          "internalType": "uint256",
          "name": "",
          "type": "uint256"
        }
      ],
      "stateMutability": "view",
      "type": "function"
    },
    {
      "inputs": [],
      "name": "getLatestTimeStamp",
      "outputs": [
        {
          "internalType": "uint256",
          "name": "",
          "type": "uint256"
        }
      ],
      "stateMutability": "view",
      "type": "function"
    },
    {
      "inputs": [],
      "name": "getLotteryState",
      "outputs": [
        {
          "internalType": "enum Lottery.LotteryState",
          "name": "",
          "type": "uint8"
        }
      ],
      "stateMutability": "view",
      "type": "function"
    },
    {
      "inputs": [],
      "name": "getNumWords",
      "outputs": [
        {
          "internalType": "uint256",
          "name": "",
          "type": "uint256"
        }
      ],
      "stateMutability": "pure",
      "type": "function"
    },
    {
      "inputs": [],
      "name": "getNumberOfPlayers",
      "outputs": [
        {
          "internalType": "uint256",
          "name": "",
          "type": "uint256"
        }
      ],
      "stateMutability": "view",
      "type": "function"
    },
    {
      "inputs": [
        {
          "internalType": "uint256",
          "name": "_index",
          "type": "uint256"
        }
      ],
      "name": "getPLayer",
      "outputs": [
        {
          "internalType": "address",
          "name": "",
          "type": "address"
        }
      ],
      "stateMutability": "view",
      "type": "function"
    },
    {
      "inputs": [],
      "name": "getRecentWinner",
      "outputs": [
        {
          "internalType": "address",
          "name": "",
          "type": "address"
        }
      ],
      "stateMutability": "view",
      "type": "function"
    },
    {
      "inputs": [],
      "name": "getRequestConfirmations",
      "outputs": [
        {
          "internalType": "uint256",
          "name": "",
          "type": "uint256"
        }
      ],
      "stateMutability": "pure",
      "type": "function"
    },
    {
      "inputs": [
        {
          "internalType": "bytes",
          "name": "",
          "type": "bytes"
        }
      ],
      "name": "performUpkeep",
      "outputs": [],
      "stateMutability": "nonpayable",
      "type": "function"
    },
    {
      "inputs": [
        {
          "internalType": "uint256",
          "name": "requestId",
          "type": "uint256"
        },
        {
          "internalType": "uint256[]",
          "name": "randomWords",
          "type": "uint256[]"
        }
      ],
      "name": "rawFulfillRandomWords",
      "outputs": [],
      "stateMutability": "nonpayable",
      "type": "function"
    }
  ],
  "bytecode": "0x6101606040523480156200001257600080fd5b50604051620017be380380620017be8339818101604052810190620000389190620002a0565b858073ffffffffffffffffffffffffffffffffffffffff1660808173ffffffffffffffffffffffffffffffffffffffff1660601b81525050508460a081815250508573ffffffffffffffffffffffffffffffffffffffff1660c08173ffffffffffffffffffffffffffffffffffffffff1660601b815250508360e081815250508267ffffffffffffffff166101008167ffffffffffffffff1660c01b815250508163ffffffff166101208163ffffffff1660e01b815250506000600260146101000a81548160ff021916908360018111156200011957620001186200033c565b5b0217905550426001819055508061014081815250505050505050506200036b565b600080fd5b600073ffffffffffffffffffffffffffffffffffffffff82169050919050565b60006200016c826200013f565b9050919050565b6200017e816200015f565b81146200018a57600080fd5b50565b6000815190506200019e8162000173565b92915050565b6000819050919050565b620001b981620001a4565b8114620001c557600080fd5b50565b600081519050620001d981620001ae565b92915050565b6000819050919050565b620001f481620001df565b81146200020057600080fd5b50565b6000815190506200021481620001e9565b92915050565b600067ffffffffffffffff82169050919050565b62000239816200021a565b81146200024557600080fd5b50565b60008151905062000259816200022e565b92915050565b600063ffffffff82169050919050565b6200027a816200025f565b81146200028657600080fd5b50565b6000815190506200029a816200026f565b92915050565b60008060008060008060c08789031215620002c057620002bf6200013a565b5b6000620002d089828a016200018d565b9650506020620002e389828a01620001c8565b9550506040620002f689828a0162000203565b94505060606200030989828a0162000248565b93505060806200031c89828a0162000289565b92505060a06200032f89828a01620001c8565b9150509295509295509295565b7f4e487b7100000000000000000000000000000000000000000000000000000000600052602160045260246000fd5b60805160601c60a05160c05160601c60e0516101005160c01c6101205160e01c610140516113de620003e0600039600061068901526000610521015260006104fe015260006104dd015260006104a10152600081816102b401526106f50152600081816102da015261032e01526113de6000f3fe6080604052600436106100a75760003560e01c806353a2c19a1161006457806353a2c19a146101bc5780635f1b0fd8146101e75780636b68c03c146102125780636e04ff0d1461023d578063c1af57851461027b578063fd6673f514610285576100a7565b806309bc33a7146100ac5780631fe543e3146100d7578063320229eb14610100578063344cb5691461012b5780634585e33b14610168578063473f1ddc14610191575b600080fd5b3480156100b857600080fd5b506100c16102b0565b6040516100ce9190610b5f565b60405180910390f35b3480156100e357600080fd5b506100fe60048036038101906100f99190610d13565b6102d8565b005b34801561010c57600080fd5b50610115610398565b6040516101229190610b5f565b60405180910390f35b34801561013757600080fd5b50610152600480360381019061014d9190610d6f565b6103a2565b60405161015f9190610ddd565b60405180910390f35b34801561017457600080fd5b5061018f600480360381019061018a9190610e53565b6103e9565b005b34801561019d57600080fd5b506101a66105e9565b6040516101b39190610ddd565b60405180910390f35b3480156101c857600080fd5b506101d1610613565b6040516101de9190610b5f565b60405180910390f35b3480156101f357600080fd5b506101fc610622565b6040516102099190610b5f565b60405180910390f35b34801561021e57600080fd5b5061022761062f565b6040516102349190610f17565b60405180910390f35b34801561024957600080fd5b50610264600480360381019061025f9190610fe7565b610646565b6040516102729291906110d3565b60405180910390f35b6102836106f3565b005b34801561029157600080fd5b5061029a610862565b6040516102a79190610b5f565b60405180910390f35b60007f0000000000000000000000000000000000000000000000000000000000000000905090565b7f000000000000000000000000000000000000000000000000000000000000000073ffffffffffffffffffffffffffffffffffffffff163373ffffffffffffffffffffffffffffffffffffffff161461038a57337f00000000000000000000000000000000000000000000000000000000000000006040517f1cf993f4000000000000000000000000000000000000000000000000000000008152600401610381929190611103565b60405180910390fd5b610394828261086e565b5050565b6000600154905090565b60008082815481106103b7576103b661112c565b5b9060005260206000200160009054906101000a900473ffffffffffffffffffffffffffffffffffffffff169050919050565b600061040360405180602001604052806000815250610646565b509050806104725747600080549050600260149054906101000a900460ff16600181111561043457610433610ea0565b5b6040517f6e195f250000000000000000000000000000000000000000000000000000000081526004016104699392919061115b565b60405180910390fd5b6001600260146101000a81548160ff0219169083600181111561049857610497610ea0565b5b021790555060007f000000000000000000000000000000000000000000000000000000000000000073ffffffffffffffffffffffffffffffffffffffff16635d3b1d307f00000000000000000000000000000000000000000000000000000000000000007f000000000000000000000000000000000000000000000000000000000000000060037f000000000000000000000000000000000000000000000000000000000000000060016040518663ffffffff1660e01b815260040161056295949392919061120a565b602060405180830381600087803b15801561057c57600080fd5b505af1158015610590573d6000803e3d6000fd5b505050506040513d601f19601f820116820180604052508101906105b49190611272565b9050807febf56642252004c18a776f30d528e7a0ce8c5db14b6596fb6550f630c8a24c6c60405160405180910390a250505050565b6000600260009054906101000a900473ffffffffffffffffffffffffffffffffffffffff16905090565b6000600163ffffffff16905090565b6000600361ffff16905090565b6000600260149054906101000a900460ff16905090565b600060606000600260149054906101000a900460ff16600181111561066e5761066d610ea0565b5b6000600181111561068257610681610ea0565b5b14905060007f0000000000000000000000000000000000000000000000000000000000000000600154426106b691906112ce565b119050600080600080549050119050600080471190508380156106d65750825b80156106df5750815b80156106e85750805b955050505050915091565b7f000000000000000000000000000000000000000000000000000000000000000034101561074d576040517f3e8f808800000000000000000000000000000000000000000000000000000000815260040160405180910390fd5b6000600181111561076157610760610ea0565b5b600260149054906101000a900460ff16600181111561078357610782610ea0565b5b146107ba576040517fe76be6fc00000000000000000000000000000000000000000000000000000000815260040160405180910390fd5b6000339080600181540180825580915050600190039060005260206000200160009091909190916101000a81548173ffffffffffffffffffffffffffffffffffffffff021916908373ffffffffffffffffffffffffffffffffffffffff1602179055503373ffffffffffffffffffffffffffffffffffffffff167f1d64fb5ba9f2548c5b98468d58f25b87b9e866afee0122e92d9fe722bf85076c60405160405180910390a2565b60008080549050905090565b60008080549050826000815181106108895761088861112c565b5b602002602001015161089b9190611331565b905060008082815481106108b2576108b161112c565b5b9060005260206000200160009054906101000a900473ffffffffffffffffffffffffffffffffffffffff16905080600260006101000a81548173ffffffffffffffffffffffffffffffffffffffff021916908373ffffffffffffffffffffffffffffffffffffffff1602179055506000600260146101000a81548160ff0219169083600181111561094657610945610ea0565b5b0217905550600067ffffffffffffffff81111561096657610965610bd0565b5b6040519080825280602002602001820160405280156109945781602001602082028036833780820191505090505b50600090805190602001906109aa929190610a9f565b504260018190555060008173ffffffffffffffffffffffffffffffffffffffff16476040516109d890611393565b60006040518083038185875af1925050503d8060008114610a15576040519150601f19603f3d011682016040523d82523d6000602084013e610a1a565b606091505b5050905080610a55576040517faca80e4300000000000000000000000000000000000000000000000000000000815260040160405180910390fd5b8173ffffffffffffffffffffffffffffffffffffffff167f5b690ec4a06fe979403046eaeea5b3ce38524683c3001f662c8b5a829632f7df60405160405180910390a25050505050565b828054828255906000526020600020908101928215610b18579160200282015b82811115610b175782518260006101000a81548173ffffffffffffffffffffffffffffffffffffffff021916908373ffffffffffffffffffffffffffffffffffffffff16021790555091602001919060010190610abf565b5b509050610b259190610b29565b5090565b5b80821115610b42576000816000905550600101610b2a565b5090565b6000819050919050565b610b5981610b46565b82525050565b6000602082019050610b746000830184610b50565b92915050565b6000604051905090565b600080fd5b600080fd5b610b9781610b46565b8114610ba257600080fd5b50565b600081359050610bb481610b8e565b92915050565b600080fd5b6000601f19601f8301169050919050565b7f4e487b7100000000000000000000000000000000000000000000000000000000600052604160045260246000fd5b610c0882610bbf565b810181811067ffffffffffffffff82111715610c2757610c26610bd0565b5b80604052505050565b6000610c3a610b7a565b9050610c468282610bff565b919050565b600067ffffffffffffffff821115610c6657610c65610bd0565b5b602082029050602081019050919050565b600080fd5b6000610c8f610c8a84610c4b565b610c30565b90508083825260208201905060208402830185811115610cb257610cb1610c77565b5b835b81811015610cdb5780610cc78882610ba5565b845260208401935050602081019050610cb4565b5050509392505050565b600082601f830112610cfa57610cf9610bba565b5b8135610d0a848260208601610c7c565b91505092915050565b60008060408385031215610d2a57610d29610b84565b5b6000610d3885828601610ba5565b925050602083013567ffffffffffffffff811115610d5957610d58610b89565b5b610d6585828601610ce5565b9150509250929050565b600060208284031215610d8557610d84610b84565b5b6000610d9384828501610ba5565b91505092915050565b600073ffffffffffffffffffffffffffffffffffffffff82169050919050565b6000610dc782610d9c565b9050919050565b610dd781610dbc565b82525050565b6000602082019050610df26000830184610dce565b92915050565b600080fd5b60008083601f840112610e1357610e12610bba565b5b8235905067ffffffffffffffff811115610e3057610e2f610df8565b5b602083019150836001820283011115610e4c57610e4b610c77565b5b9250929050565b60008060208385031215610e6a57610e69610b84565b5b600083013567ffffffffffffffff811115610e8857610e87610b89565b5b610e9485828601610dfd565b92509250509250929050565b7f4e487b7100000000000000000000000000000000000000000000000000000000600052602160045260246000fd5b60028110610ee057610edf610ea0565b5b50565b6000819050610ef182610ecf565b919050565b6000610f0182610ee3565b9050919050565b610f1181610ef6565b82525050565b6000602082019050610f2c6000830184610f08565b92915050565b600080fd5b600067ffffffffffffffff821115610f5257610f51610bd0565b5b610f5b82610bbf565b9050602081019050919050565b82818337600083830152505050565b6000610f8a610f8584610f37565b610c30565b905082815260208101848484011115610fa657610fa5610f32565b5b610fb1848285610f68565b509392505050565b600082601f830112610fce57610fcd610bba565b5b8135610fde848260208601610f77565b91505092915050565b600060208284031215610ffd57610ffc610b84565b5b600082013567ffffffffffffffff81111561101b5761101a610b89565b5b61102784828501610fb9565b91505092915050565b60008115159050919050565b61104581611030565b82525050565b600081519050919050565b600082825260208201905092915050565b60005b8381101561108557808201518184015260208101905061106a565b83811115611094576000848401525b50505050565b60006110a58261104b565b6110af8185611056565b93506110bf818560208601611067565b6110c881610bbf565b840191505092915050565b60006040820190506110e8600083018561103c565b81810360208301526110fa818461109a565b90509392505050565b60006040820190506111186000830185610dce565b6111256020830184610dce565b9392505050565b7f4e487b7100000000000000000000000000000000000000000000000000000000600052603260045260246000fd5b60006060820190506111706000830186610b50565b61117d6020830185610b50565b61118a6040830184610b50565b949350505050565b6000819050919050565b6111a581611192565b82525050565b600067ffffffffffffffff82169050919050565b6111c8816111ab565b82525050565b600061ffff82169050919050565b6111e5816111ce565b82525050565b600063ffffffff82169050919050565b611204816111eb565b82525050565b600060a08201905061121f600083018861119c565b61122c60208301876111bf565b61123960408301866111dc565b61124660608301856111fb565b61125360808301846111fb565b9695505050505050565b60008151905061126c81610b8e565b92915050565b60006020828403121561128857611287610b84565b5b60006112968482850161125d565b91505092915050565b7f4e487b7100000000000000000000000000000000000000000000000000000000600052601160045260246000fd5b60006112d982610b46565b91506112e483610b46565b9250828210156112f7576112f661129f565b5b828203905092915050565b7f4e487b7100000000000000000000000000000000000000000000000000000000600052601260045260246000fd5b600061133c82610b46565b915061134783610b46565b92508261135757611356611302565b5b828206905092915050565b600081905092915050565b50565b600061137d600083611362565b91506113888261136d565b600082019050919050565b600061139e82611370565b915081905091905056fea2646970667358221220cd31c731349d41776e6d4ee58835617f397e32a9ad42b592ff875b120729bc1e64736f6c63430008080033",
  "linkReferences": {},
  "deployedLinkReferences": {}
}